:200000000C945C000C946E000C946E000C946E000C946E000C946E000C946E000C946E0082
:200020000C946E000C946E000C946E000C946E000C946E000C946E000C946E000C946E0050
:200040000C9413010C946E000C946E000C946E000C946E000C946E000C946E000C946E008A
:200060000C946E000C946E0000000000240027002A0000000000250028002B000404040467
:200080000404040402020202020203030303030301020408102040800102040810200102F1
:2000A00004081020000000080002010000030407000000000000000011241FBECFEFD8E063
:2000C000DEBFCDBF21E0A0E0B1E001C01D92A930B207E1F70E945D010C94CC010C940000FE
:2000E000E1EBF0E02491EDE9F0E09491E9E8F0E0E491EE23C9F0222339F0233001F1A8F4B5
:20010000213019F1223029F1F0E0EE0FFF1FEE58FF4FA591B4912FB7F894EC91811126C0B7
:2001200090959E239C932FBF08952730A9F02830C9F0243049F7209180002F7D03C0209139
:2001400080002F7720938000DFCF24B52F7724BDDBCF24B52F7DFBCF2091B0002F77209385
:20016000B000D2CF2091B0002F7DF9CF9E2BDACF3FB7F8948091050190910601A0910701ED
:20018000B091080126B5A89B05C02F3F19F00196A11DB11D3FBFBA2FA92F982F8827BC01A6
:2001A000CD01620F711D811D911D42E0660F771F881F991F4A95D1F708958F929F92AF92C3
:2001C000BF92CF92DF92EF92FF920E94B8004B015C0188EEC82E83E0D82EE12CF12C0E9446
:2001E000B800681979098A099B09683E734081059105A8F321E0C21AD108E108F10888EEEF
:20020000880E83E0981EA11CB11CC114D104E104F10429F7FF90EF90DF90CF90BF90AF9097
:200220009F908F9008951F920F920FB60F9211242F933F938F939F93AF93BF938091010157
:2002400090910201A0910301B09104013091000123E0230F2D3758F50196A11DB11D209381
:2002600000018093010190930201A0930301B09304018091050190910601A0910701B0910A
:2002800008010196A11DB11D8093050190930601A0930701B0930801BF91AF919F918F9188
:2002A0003F912F910F900FBE0F901F90189526E8230F0296A11DB11DD2CF789484B582601B
:2002C00084BD84B5816084BD85B5826085BD85B5816085BD80916E00816080936E00109244
:2002E000810080918100826080938100809181008160809381008091800081608093800069
:200300008091B10084608093B1008091B00081608093B00080917A00846080937A00809101
:200320007A00826080937A0080917A00816080937A0080917A00806880937A001092C10078
:20034000EDE9F0E02491E9E8F0E08491882399F090E0880F991FFC01E859FF4FA591B49192
:20036000FC01EE58FF4F859194918FB7F894EC91E22BEC938FBFC0E0D0E081E00E947000C5
:200380000E94DD0080E00E9470000E94DD002097A1F30E940000F1CFF894FFCFFFFFFFFFEA
:2003A000FFFFFFFFFFFFFFFFFFFFFFFFFFFFFFFFFFFFFFFFFFFFFFFFFFFFFFFFFFFFFFFF5D
:2003C000FFFFFFFFFFFFFFFFFFFFFFFFFFFFFFFFFFFFFFFFFFFFFFFFFFFFFFFFFFFFFFFF3D
:2003E000FFFFFFFFFFFFFFFFFFFFFFFFFFFFFFFFFFFFFFFFFFFFFFFFFFFFFFFFFFFFFFFF1D
:2004000050E00E946C0A8BEE92E06AE371E00E948B0A60915402709155028BEE92E04AE020
:2004200050E00E946C0A8BEE92E061E471E00E948B0A60915602709157028BEE92E04AE004
:2004400050E00E946C0A08E012E0C0E0D0E08BEE92E068E471E00E948B0A8BEE92E0BE01C1
:200460004AE050E00E94590A8BEE92E060E671E00E948B0AF801619171918F018BEE92E0FC
:200480004AE050E00E946C0A2196C630D105F9F604E112E0C0E0D0E08BEE92E063E671E0CC
:2004A0000E948B0A8BEE92E0BE014AE050E00E94590A8BEE92E060E671E00E948B0AF8014A
:2004C000619171918F018BEE92E04AE050E00E946C0A2196C530D105F9F60EE112E0C0E049
:2004E000D0E08BEE92E06BE771E00E948B0A8BEE92E0BE014AE050E00E94590A8BEE92E093
:2005000060E671E00E948B0AF801619171918F018BEE92E04AE050E00E946C0A2196C63086
:20052000D105F9F60AE212E0C0E0D0E08BEE92E063E971E00E948B0A8BEE92E0BE014AE035
:2005400050E00E94590A8BEE92E060E671E00E948B0AF801619171918F018BEE92E04AE01B
:2005600050E00E946C0A2196C530D105F9F68BEE92E06BEA71E00E948B0A609134027091D2
:2005800035028BEE92E04AE050E00E946C0A8BEE92E064EB71E00E948B0A609136027091DB
:2005A00037028BEE92E04AE050E00E946C0ADF91CF911F910F910895CF93DF93C3EDD1E0B3
:2005C000888160E00E944906888161E00E948806229681E0C53FD80799F7DF91CF9108956E
:2005E00080913402909135020197A1F48091360290913702019771F40E94DC028091F50108
:2006000061E00E94490689E592E060E870E04BEA0E943C05089582E161E00E94880683E143
:2006200060E00E948806089582E160E00E94880683E161E00E9488060895CF93DF9380E034
:200640000E942406CDEBD1E0888160E00E944906229681E0C93CD807B9F7C9ECD1E088810F
:2006600060E00E944906229681E0C33DD807B9F78EE060E00E9449068FE060E00E94490662
:2006800080E160E00E94490681E160E00E94490682E161E00E94490683E161E00E9449060A
:2006A00087E060E00E94490686E061E00E94490686E061E00E948806DF91CF9108950F9324
:2006C0001F93CF93DF938EE00E94270690934F0280934E028FE00E942706909351028093B9
:2006E000500280E10E942706909353028093520281E10E942706909355028093540287E01E
:200700000E94DC069093570280935602CDEBD1E00EE112E088810E94DC06F8019183808387
:2007200088810E94DC06892B49F080913E0290913F02019690933F0280933E0222960E5F19
:200740001F4FF1E0C93CDF0729F7C9ECD1E00AE212E088810E94DC06F80191838083888165
:200760000E94DC06892B49F480913A0290913B02019690933B0280933A0222960E5F1F4F80
:20078000F1E0C33DDF0729F78091560290915702892BF9F480915002909151028A58924073
:2007A000C397B8F4809152029091530286569340C39778F480915402909155028557934055
:2007C000C39738F480914E0290914F028F5D93404CF4809142029091430201969093430207
:2007E0008093420280913A0290913B02892B99F480913E0290913F02892B69F4809142029D
:2008000090914302892B39F481E090E0909337028093360204C01092370210923602DF9130
:20082000CF911F910F9108950F931F93CF93DF938EE00E94270690934502809344028FE0D4
:200840000E942706909347028093460280E10E942706909349028093480281E10E942706D6
:2008600090934B0280934A0287E00E94DC0690934D0280934C02C9ECD1E004E112E08881A5
:200880000E94DC06F8019183808388810E94DC06892B49F0809138029091390201969093E9
:2008A00039028093380222960E5F1F4FF1E0C33DDF0729F7CDEBD1E008E012E088810E9458
:2008C000DC06F8019183808388810E94DC06892B49F480913C0290913D02019690933D0200
:2008E00080933C0222960E5F1F4FF1E0C93CDF0729F780914C0290914D02892BB9F48091F7
:200900004402909145028A589240C39778F480914A0290914B0285579340C39738F480919E
:200920004602909147028F5D93404CF48091400290914102019690934102809340028091EC
:20094000380290913902892B99F480913C0290913D02892B69F48091400290914102892B95
:2009600039F481E090E0909335028093340204C01092350210923402DF91CF911F910F9141
:2009800008950E941D030E940B0364E670E080E090E00E9490050E945F0364E670E080E0A9
:2009A00090E00E9490050E941D030E94140364E670E080E090E00E9490050E94140464E670
:2009C00070E080E090E00E9490050E94720164E670E080E090E00E9490050E94F00264E62C
:2009E00070E080E090E00E9490050E948D00089581E08093580289E592E060E870E00E94EC
:200A000035058B3A11F41092580280915802882311F00E94C104809158028823E1F480915C
:200A2000F50161E00E9449068091F50161E00E94880668EE73E080E090E00E949005809155
:200A4000F50160E00E94880668EE73E080E090E00E949005E9CF08950E94F80464E670E0F3
:200A600080E090E00E9490050895F999FECF72BD61BDF89A80B50895F999FECF1FBA72BD5B
:200A800061BD40BD0FB6F894FA9AF99A0FBE08951F920F920FB60F9211242F933F938F93B6
:200AA0009F93AF93BF9380915E0290915F02A0916002B0916102309162020196A11DB11DFE
:200AC000232F2D5F2D3720F02D570196A11DB11D2093620280935E0290935F02A09360027A
:200AE000B093610280915A0290915B02A0915C02B0915D020196A11DB11D80935A02909381
:200B00005B02A0935C02B0935D02BF91AF919F918F913F912F910F900FBE0F901F9018956E
:200B20009B01AC017FB7F89480915A0290915B02A0915C02B0915D0266B5A89B05C06F3FBF
:200B400019F00196A11DB11D7FBFBA2FA92F982F8827860F911DA11DB11D62E0880F991F94
:200B6000AA1FBB1F6A95D1F7BC012DC0FFB7F89480915A0290915B02A0915C02B0915D0205
:200B8000E6B5A89B05C0EF3F19F00196A11DB11DFFBFBA2FA92F982F88278E0F911DA11D5A
:200BA000B11DE2E0880F991FAA1FBB1FEA95D1F7861B970B885E9340C8F221503040404055
:200BC000504068517C4F211531054105510571F60895789484B5826084BD84B5816084BD32
:200BE00085B5826085BD85B5816085BDEEE6F0E0808181608083E1E8F0E0108280818260A3
:200C00008083808181608083E0E8F0E0808181608083E1EBF0E0808184608083E0EBF0E050
:200C2000808181608083EAE7F0E08081846080838081826080838081816080838081806892
:200C400080831092C10008958093F7010895982F8E3008F09E5097708091F7018295880FC0
:200C6000880F807C892B80937C0080917A00806480937A0080917A0086FDFCCF20917800A0
:200C800040917900942F80E030E0282B392BC9010895CF93DF93482F50E0CA0186569F4FA9
:200CA000FC0134914A575F4FFA018491882369F190E0880F991FFC01E859FF4FA591B49148
:200CC000FC01EE58FF4FC591D491662351F42FB7F8948C91932F909589238C938881892304
:200CE0000BC0623061F42FB7F8948C91932F909589238C938881832B88832FBF06C09FB735
:200D0000F8948C91832B8C939FBFDF91CF910895482F50E0CA0182559F4FFC012491CA01DE
:200D200086569F4FFC0194914A575F4FFA013491332309F440C0222351F1233071F02430D6
:200D400028F42130A1F0223011F514C02630B1F02730C1F02430D9F404C0809180008F77EE
:200D600003C0809180008F7D8093800010C084B58F7702C084B58F7D84BD09C08091B0009F
:200D80008F7703C08091B0008F7D8093B000E32FF0E0EE0FFF1FEE58FF4FA591B4912FB708
:200DA000F894662321F48C919095892302C08C91892B8C932FBF0895682F70E0CB01825554
:200DC0009F4FFC012491CB0186569F4FFC0144916A577F4FFB019491992319F420E030E082
:200DE0003CC0222351F1233071F0243028F42130A1F0223011F514C02630B1F02730C1F03F
:200E00002430D9F404C0809180008F7703C0809180008F7D8093800010C084B58F7702C092
:200E200084B58F7D84BD09C08091B0008F7703C08091B0008F7D8093B000892F90E0880F8A
:200E4000991F84589F4FFC01A591B4918C9120E030E0842311F021E030E0C90108950895AE
:200E60001F920F920FB60F9211242F933F934F938F939F93EF93FF938091C00082FD1DC07A
:200E80004091C6002091A3023091A4022F5F3F4F2F7330708091A5029091A60228173907A0
:200EA00071F0E091A302F091A402ED59FD4F40833093A4022093A30202C08091C600FF9155
:200EC000EF919F918F914F913F912F910F900FBE0F901F901895E091F702F091F802E05C4A
:200EE000FF4F8191919120813181821B930B8F739070892B11F00E942F0708951F920F9264
:200F00000FB60F9211242F933F938F939F93EF93FF932091E7023091E8028091E9029091D8
:200F2000EA022817390731F48091C1008F7D8093C10014C0E091E902F091EA02E955FD4F48
:200F400020818091E9029091EA0201968F7390709093EA028093E9022093C600FF91EF91B8
:200F60009F918F913F912F910F900FBE0F901F901895AF92BF92DF92EF92FF920F931F93C1
:200F8000CF93DF93EC017A018B01DD24403081EE580780E0680780E0780711F0DD24D39433
:200FA00091E0A92EB12CEC89FD89DD2069F0C50108A002C0880F991F0A94E2F7808360E082
:200FC00079E08DE390E005C0108260E874E88EE190E0A80197010E94C00A215030404040F0
:200FE0005040569547953795279580E12030380720F0DD2011F0DD24D6CFE889F9893083C8
:20100000EA89FB89208319A2EE89FF89408121E030E0C9010C8C02C0880F991F0A94E2F7C0
:20102000482B4083EE89FF894081C9010D8C02C0880F991F0A94E2F7482B4083EE89FF899A
:201040004081C9010E8C02C0880F991F0A94E2F7482B4083EE89FF8980810F8C02C0220F1F
:20106000331F0A94E2F7209528232083DF91CF911F910F91FF90EF90DF90BF90AF9008953C
:20108000DC011C96ED91FC911D97E05CFF4F2191319180819181281B390B2F733070C9015E
:2010A0000895DC011C96ED91FC911D97E05CFF4F20813181E054F040DF01AE5BBF4F8D91EF
:2010C0009C9111972817390719F42FEF3FEF07C08D919C91E80FF91F8081282F30E0C90110
:2010E0000895DC011C96ED91FC911D97E05CFF4F20813181E054F040DF01AE5BBF4F8D91AF
:201100009C9111972817390719F42FEF3FEF10C08D919C911197E80FF91F20818D919C9164
:20112000119701968F73907011969C938E9330E0C9010895DC0191968C919197882339F0E3
:201140005496ED91FC915597808186FFF9CF91961C920895CF93DF93EC01EE85FF85E05CFA
:20116000FF4F20813181E054F0402F5F3F4F2F733070DF01AE5BBF4F8D919C9111972817E3
:201180003907D1F3E05CFF4F80819181E054F040E80FF91F6083EE85FF85E05CFF4F318323
:2011A0002083EE89FF89208181E090E00F8C02C0880F991F0A94E2F7282B208381E089A375
:2011C000EC89FD8980818064808381E090E0DF91CF9108951092EE021092ED0288EE93E0E2
:2011E000A0E0B0E08093EF029093F002A093F102B093F2028CEF91E09093EC028093EB026C
:2012000083E692E09093F8028093F70287EA92E09093FA028093F90285EC90E09093FC02B8
:201220008093FB0284EC90E09093FE028093FD0280EC90E0909300038093FF0281EC90E096
:20124000909302038093010382EC90E0909304038093030386EC90E0909306038093050305
:2012600084E08093070383E08093080387E08093090385E080930A0381E080930B03089542
:20128000CF93DF930E94E9050E948C00CBE6D7E00E942C052097E1F30E946B07F9CFCF92B9
:2012A000DF92EF92FF920F931F93CF93DF937C016B018A01C0E0D0E00FC0D6016D916D01AD
:2012C000D701ED91FC910190F081E02DC7010995C80FD91F015010400115110571F7CE01E3
:2012E000DF91CF911F910F91FF90EF90DF90CF900895EF92FF920F931F938C01DC01ED9107
:20130000FC910190F081E02D6DE009957C01D801ED91FC910190F081E02DC8016AE0099525
:201320009C012E0D3F1DC9011F910F91FF90EF900895CF93DF93EC016115710519F420E0FA
:2013400030E00FC0DB010D900020E9F71197A61BB70BE881F9810280F381E02DAD010995D8
:201360009C01C901DF91CF9108954F925F927F928F929F92AF92BF92CF92DF92EF92FF92EE
:201380000F931F93DF93CF93CDB7DEB7A1970FB6F894DEBF0FBECDBF2C01742ECB012230A0
:2013A00008F42AE019A231E2C32ED12CCC0EDD1E822E9924AA24BB24672D752FA501940109
:2013C0000E94C00A79018A01C801B701A50194010E948E0A472D461B0894C108D1084A3019
:2013E00014F4405D01C0495CF6014083E114F1040105110521F07E2C5F2DC801DDCFC201A3
:20140000B6010E949909A1960FB6F894DEBF0FBECDBFCF91DF911F910F91FF90EF90DF90B6
:20142000CF90BF90AF909F908F907F905F904F900895CF92DF92EF92FF920F931F93CF935D
:20144000DF93EC016A017B012115310541F4E881F9810190F081E02D642F09951FC02A3049
:201460003105D1F477FF17C0E881F9810190F081E02D6DE209958C0144275527BA014C19B1
:201480005D096E097F09CE012AE00E94B5099801280F391F04C02AE00E94B5099C01C901F1
:2014A000DF91CF911F910F91FF90EF90DF90CF900895EF92FF920F931F937B019A010027EF
:2014C000F7FC0095102FB801A7010E94190A1F910F91FF90EF900895CF92DF92EF92FF9240
:2014E0000F931F936C017B019A010027F7FC0095102FB801A7010E94190A8C01C6010E940A
:201500007909080F191FC8011F910F91FF90EF90DF90CF9008950E9499090895629FD001B5
:20152000739FF001829FE00DF11D649FE00DF11D929FF00D839FF00D749FF00D659FF00D30
:201540009927729FB00DE11DF91F639FB00DE11DF91FBD01CF011124089597FB092E0726BC
:201560000AD077FD04D02ED006D000201AF4709561957F4F0895F6F7909581959F4F08952E
:20158000A1E21A2EAA1BBB1BFD010DC0AA1FBB1FEE1FFF1FA217B307E407F50720F0A21B25
:2015A000B30BE40BF50B661F771F881F991F1A9469F760957095809590959B01AC01BD01BB
:2015C000CF010895AA1BBB1B51E107C0AA1FBB1FA617B70710F0A61BB70B881F991F5A951B
:2015E000A9F780959095BC01CD010895EE0FFF1F0590F491E02D0994F894FFCF3A00413005
:201600002D343A200041312D343A200041322D343A200041332D343A200044372D343A204F
:201620000041302D353A200041312D353A200041322D353A200041332D353A200044372D48
:20164000353A2000413550696E5365745F726573756C74735F706172743120003A200041BF
:201660003450696E5365745F726573756C74735F70617274312000413550696E5365745FE3
:20168000726573756C74735F70617274322000413450696E5365745F726573756C74735F38
:2016A000706172743220004134544553543A20004135544553543A200000000200040008F4
:2016C000000A000C0001000300050009000B00020003000400050006000700080009000AA1
:2016E000000B000C000E000F0010001100120013000D000100000000AA084F094008710897
:2017000051089A08FFFFFFFFFFFFFFFFFFFFFFFFFFFFFFFFFFFFFFFFFFFFFFFFFFFFFFFFEA
:20172000FFFFFFFFFFFFFFFFFFFFFFFFFFFFFFFFFFFFFFFFFFFFFFFFFFFFFFFFFFFFFFFFC9
:20174000FFFFFFFFFFFFFFFFFFFFFFFFFFFFFFFFFFFFFFFFFFFFFFFFFFFFFFFFFFFFFFFFA9
:20176000FFFFFFFFFFFFFFFFFFFFFFFFFFFFFFFFFFFFFFFFFFFFFFFFFFFFFFFFFFFFFFFF89
:20178000FFFFFFFFFFFFFFFFFFFFFFFFFFFFFFFFFFFFFFFFFFFFFFFFFFFFFFFFFFFFFFFF69
:207E0000112484B714BE81FFF0D085E08093810082E08093C00088E18093C10086E08093FC
:207E2000C20080E18093C4008EE0C9D0259A86E020E33CEF91E0309385002093840096BBAD
:207E4000B09BFECF1D9AA8958150A9F7CC24DD2488248394B5E0AB2EA1E19A2EF3E0BF2E79
:207E6000A2D0813461F49FD0082FAFD0023811F0013811F484E001C083E08DD089C0823404
:207E800011F484E103C0853419F485E0A6D080C0853579F488D0E82EFF2485D0082F10E0A0
:207EA000102F00270E291F29000F111F8ED068016FC0863521F484E090D080E0DECF84364D
:207EC00009F040C070D06FD0082F6DD080E0C81680E7D80618F4F601B7BEE895C0E0D1E0ED
:207EE00062D089930C17E1F7F0E0CF16F0E7DF0618F0F601B7BEE89568D007B600FCFDCF1A
:207F0000A601A0E0B1E02C9130E011968C91119790E0982F8827822B932B1296FA010C016F
:207F200087BEE89511244E5F5F4FF1E0A038BF0751F7F601A7BEE89507B600FCFDCF97BE85
:207F4000E89526C08437B1F42ED02DD0F82E2BD03CD0F601EF2C8F010F5F1F4F84911BD0B8
:207F6000EA94F801C1F70894C11CD11CFA94CF0CD11C0EC0853739F428D08EE10CD085E9AE
:207F80000AD08FE07ACF813511F488E018D01DD080E101D065CF982F8091C00085FFFCCF0A
:207FA0009093C60008958091C00087FFFCCF8091C00084FD01C0A8958091C6000895E0E68F
:207FC000F0E098E1908380830895EDDF803219F088E0F5DFFFCF84E1DECF1F93182FE3DF47
:207FE0001150E9F7F2DF1F91089580E0E8DFEE27FF270994FFFFFFFFFFFFFFFFFFFF040425
:00000001FF
